:02000004080AE8
:1000000000000A085C700A080000050006000501EF
:080010000402EA0300000000F5
:10001800385F0A0809480A4908B5884205D0094ADC
:10002800824202D0121A05F0B3FD0748074A0021A0
:10003800121A05F0B8FD064808BD00BF00030020ED
:10004800446E0A08F0040020F00400204015002047
:100058004015002070B503F0A1FF074B074C1E4662
:10006800E41AA4080025A54204D056F8253098477C
:100078000135F8E770BD00BF006E0A08406E0A0837
:1000880000F08CB908B500F0B5F8BDE8084003F0F9
:1000980047BF03F0C5BC03F0CBBC000008B5034A5A
:1000A80000210C2003F060FCFEE700BFBD370A0802
:1000B8000078B0FA80F04009704701230370704758
:1000C80070470000B0B5054600AF6C4680B105F03A
:1000D80012FE00F1080323F00703ADEB030D421CE9
:1000E8002946684605F054FD0349684605F026FE92
:1000F800A546BD46B0BD00BF585F0A081FB50146FA
:1001080050B1684603F04BFD684603F0B4FD02F0B9
:10011800EBFD684603F0FCFC05B05DF804FBC36822
:100128008268033323F003031944914298BF42685D
:10013800C3609ABFC160D018002070472DE9F34111
:100148000E460546D8B1D1B104F05AFA00962B46AE
:100158000C4A012103F00DFE0B4F0024E1592846FB
:1001680007EB040805F0CFFD30B13046D8F804306D
:1001780002B0BDE8F04118470834782CEED102B03F
:10018800BDE8F0815D5F0A08C40300200246084606
:1001980019B10B6811461B681847704738B5084DE8
:1001A8002B6813F0010409D12846FFF781FF28B115
:1001B800044B28461C605C60FFF77FFF014838BD90
:1001C800000500200405002038B5084D2B6813F001
:1001D800010409D12846FFF76BFF28B1044B2846D4
:1001E8001C605C60FFF769FF014838BDF40400201B
:1001F800F8040020024B1B780BB103F0D9B9704703
:100208006407002010B50B46C4B012B10246154968
:1002180001E00246144904A803F01AFC04F0F0F9BE
:1002280004A903F066FD114B04AA1B7810498DF848
:10023800003002A83C2303F0FBFF039C7CB16368F9
:10024800013B63605BB9236820469B689847A368B5
:10025800013BA3601BB923682046DB68984744B07C
:1002680010BD00BF835F0A089F5F0A08650700206A
:10027800E95F0A08024B014600221868FFF7C2BF6F
:10028800A0030020024B014600221868FFF7BABFFE
:10029800A4030020024B014601221868FFF7B2BFF1
:1002A8009C030020024B014600221868FFF7AABFF2
:1002B80040030020024B014600221868FFF7A2BF46
:1002C800BC030020024B014601221868FFF79ABFC1
:1002D800B4030020024B014601221868FFF792BFC1
:1002E800A8030020024B014600221868FFF78ABFC6
:1002F800B8030020024B014601221868FFF782BFAD
:1003080034030020024B014600221868FFF77ABF29
:100318003C03002038B50D4604460749284605F039
:10032800BCFC10B90123237038BD0449284605F0E8
:10033800B4FC00B9207038BDBD5F0A08C05F0A0868
:1003480001460148FFF7E6BFCC13002070B504460C
:100358000D46164602F0E2FC32462946204602F0D7
:10036800E9FCBDE8704002F0DFBC000038B50A4B7C
:1003780005461A781C4682420DD040B10121002062
:1003880004F0B5FA4FF47A7003F068FD02E0014614
:1003980004F0ADFA257038BD6407002013B504F0E9
:1003A8002FF94FF41651002404F01EF904F028F92F
:1003B800184903F09EFC2246019400940123164933
:1003C800164803F01DFB2346224601940094144965
:1003D800144803F015FB2046012104F077FA214662
:1003E800204604F084FA4FF47A7003F037FD02F0E7
:1003F80035FC0D4B01201A880C4B1A800C4B1A88BF
:100408000C4B1A80FFF7B2FF02B0BDE8104002F0B3
:100418000BBF00BFC45F0A0845010A08D15F0A087C
:10042800A9080A08DB5F0A084413002066130020A5
:100438006C1300207413002000B5014689B0E8B1A0
:10044800104805F01BFC0F49684603F0A8FB6846F6
:1004580003F004FC0146684603F0B4FB694604A8AF
:1004680003F0BFFB04A802F01DFC04A803F050FB36
:100478000120FFF77BFF684603F04AFB09B05DF8EF
:1004880004FB00BF00600A0838B5054680B1094979
:1004980005F039FC044608B1012005E00649284664
:1004A80005F031FC20B12046BDE83840FFF75EBFBB
:1004B80038BD00BFBD5F0A08C05F0A0808B5012043
:1004C800FFF754FFBDE8084002F08ABC38B505467E
:1004D8000C4605F099FB611B013190FBF1F303FB1E
:1004E8001100284438BD03681A780D2A09D003D8AA
:1004F800093A012A26D804E0202A02D02F2A02D05D
:10050800704701331CE05A782A2A02D02F2A10D0CB
:1005180070470133036003685A1C02605A788AB135
:100528002A2AF8D19A782F2AF5D1033308E00A2B22
:10053800D9D003685A1C02605B78002BF7D101E020
:100548000360D0E7704738B504460D46FFF7CBFF88
:1005580023681A78AA4203BF0133236001200020D0
:1005680038BD000070B5044685680430FFF7BBFF4E
:1005780062681378272B11D0222B0FD047F6ED7124
:10058800A3F15F021B2A26D8626801326260A26862
:10059800501CA060137063681B78F1E70132626039
:1005A80061680A7822B3481C9A42606020D05C2AAD
:1005B8000CD14A78124806782EB1B24201D142785D
:1005C80001E00230F7E79AB102316160A168481C86
:1005D800A0600A70E4E7A3F14102192AD4D9A3F173
:1005E8002B02D2B20E2A03D821FA02F2D207CBD4B8
:1005F800A36828465A1CA26000221A7070BD00BF6A
:1006080014600A08036823B119B11B680139036033
:10061800F8E7704707B5436802A840F8043DFFF7BC
:10062800F1FF036823B11A7A072A01D1186901E09A
:10063800FFF7CAFD03B05DF804FB38B50D46446802
:100648007CB1A16805B119B94B1B5842584105E066
:10065800284605F022FBB0FA80F0400908B9246862
:10066800EEE7204638BD2DE9FF47037B0646002B01
:100678005FD00468013B037321460820FFF786FD1D
:10068800002859D0002304604360371D05467B21AC
:100698003846FFF758FF00284BD07D213846FFF732
:1006A80052FF002840D18146E8463046FFF75AFFFE
:1006B800044600283DD03A213846FFF744FF002879
:1006C80037D0414630468DF8009000F03BF880B3B3
:1006D80021462846FFF7B1FF824698B929682020AD
:1006E800FFF754FD18B1C0F800A080F810A06B689F
:1006F8002BB11A680AB11346FBE7186000E068607E
:10070800B8B1846000F1100498E80F0084E80F0085
:100718007D213846FFF717FF30B92C213846FFF7FF
:1007280012FF0028C1D104E0337B2846013333731C
:1007380005E0FFF749FD02E0FFF746FDA5E704B035
:10074800BDE8F08770B5064604300D46FFF7CBFECE
:1007580073681C785B2C02D07B2C09D013E03046E0
:1007680000F027F803680BB9002420E0062306E010
:100778003046FFF778FF0368002BF5D007232B706E
:10078800A860012413E0272C04D0A4F122035C42C2
:100798005C4100E001243046FFF7E4FE0028E3D086
:1007A80014B102232B7001E001242C70A8602046AC
:1007B80070BD2DE9F043037B85B00646002B49D078
:1007C8000468013B037321460820FFF7DFFC00287B
:1007D80043D000230460436006F1040904465B210A
:1007E8004846FFF7B0FEA8B35D214846FFF7ABFEC9
:1007F80058BB0746E846414630468DF80070FFF77B
:10080800A1FF38B321681820FFF7C0FC08B10760C2
:10081800077263682BB11A680AB11346FBE71860C0
:1008280000E06060B0B100F1080598E80F0085E8C5
:100838000F005D214846FFF786FE30B92C21484657
:10084800FFF781FE0028D6D104E0337B2046013330
:10085800337305E0FFF7A2FC02E0FFF79FFCBBE75C
:1008680005B0BDE8F08308B5FFF7E7FE08BD000056
:1008780038B5FFF7F8FF044668B1057C012D05D1AE
:10088800816919B1054805F008FA30B1013D012D1B
:1008980002D8A06938BD38BD002038BD1F600A08DD
:1008A8002DE9F0410C46054686B003F0A9FE0094F8
:1008B8002B46344A012103F05CFA002C5FD0204615
:1008C80005F019FA304D621C00230138111B8842CB
:1008D80006DD12F8011B5C29F8D0E9540133F5E76D
:1008E800294D0024EC5403F08BFE284903F001FA4B
:1008F80003F086FE294603F0FCF903F081FE064664
:10090800284605F0F8F90A220146304603F027FA8E
:1009180003F076FE1D4903F0ECF91D4B02A8DC60DC
:10092800029332238DF8143003950495FFF79BFE4C
:10093800036806462BB903F063FE164903F0D9F99C
:100948001DE01549FFF794FF054603F059FE1349CA
:1009580003F0BCF903F054FE294603F0CAF9104F1E
:10096800E159284607EB040805F097F920B9D8F8AB
:1009780004303046984702E00834582CF0D106B0CD
:10098800BDE8F08124600A080C05002059600A08B7
:10099800680700207E600A0803630A0892600A0854
:1009A8004403002010B5044603F02AFE074903F06B
:1009B800A0F907492046FFF75BFF044603F020FE35
:1009C8002146BDE8104003F094B900BF9C600A08B6
:1009D80003630A0808B5FFF746FF20B1037C062B1E
:1009E80001D1806908BDFFF7D9FB08BD38B5037888
:1009F800052B25D8DFE803F02B07070303058068DC
:100A080038BD80681AE0806820B30378742B20D042
:100A18002B2B04D02D2B03D10130012201E0013012
:100A28000022411E0A24002011F8013F303BDDB2AC
:100A3800092D02D804FB0030F6E75AB1404238BD10
:100A480000F10801D1E9000104F0DEFC38BD002006
:100A580038BD012038BD08B5FFF705FF10B11030CB
:100A6800FFF7C4FF08BD0000F0B5244989B004466B
:100A7800FFF7F1FF002807DC03F0C2FD204903F06F
:100A880038F9FFF71BFD37E01E492046FFF7A2FFA4
:100A98000021FFF7BFFD1C490446FFF7E9FE1B498B
:100AA80005462046FFF7D7FF194907462046FFF7B6
:100AB800D2FF184906462046FFF7CDFF044601201D
:100AC800FFF754FC144B21461A883046FFF73EFCCA
:100AD80003F096FD2B46114A0121029701940096D6
:100AE80003F047F9294604A803F059F804A802F0CE
:100AF800D9F804A803F00CF809B0F0BDBA600A08E8
:100B0800C0600A08CF600A08D6600A086D630A0840
:100B1800DB600A08DF600A0844130020E3600A0863
:100B28002DE9F047054603F06BFD1C4903F0E1F899
:100B38001B492846FFF78FFF044630B903F060FDD4
:100B4800BDE8F047174903F0D4B817492846FFF71E
:100B58008FFE804602F0E2F8DFF850A0DFF85090F0
:100B680067000024BC4214DA9AF8001008EB04036A
:100B78000139002018F804505E78FFF7A7FC613DA2
:100B8800613E39F810203146284602F0D3F8023485
:100B9800E8E7BDE8F04702F0C7B800BF0C610A08F3
:100BA800BA600A0828610A0848610A088004002017
:100BB8003813002037B51049FFF70CFF0021FFF765
:100BC80029FD0E490546FFF746FF0D49044628460C
:100BD800FFF741FF05460B4B01461A882046FFF7F1
:100BE800B5FB03F00DFD00952346074A012103F0EC
:100BF800C0F803B030BD00BFCF600A08DB600A0848
:100C0800DF600A08441300204F610A0807B54368EB
:100C180002A840F8043DFFF7F5FC006810B1083061
:100C2800FFF7E4FE03B05DF804FB08B5FFF71BFE11
:100C380028B11030FFF7DAFE003018BF012008BDD8
:100C480010B5044603F0DCFC0D4903F052F80D49D9
:100C58002046FFF7EAFF30B903F0D2FCBDE81040A8
:100C6800094903F046B809492046FFF7F4FE084948
:100C78002046FFF7F0FE07492046FFF7ECFE10BDBF
:100C880060610A0877610A087F610A086D630A08CB
:100C9800DB600A08DF600A0837B513490546FFF725
:100CA800C4FF38B903F0ACFC104903B0BDE83040CC
:100CB80003F01FB80E492846FFF7CDFE0D4904463C
:100CC8002846FFF7C8FE05460B4B01461A88204602
:100CD800FFF73CFB03F094FC00952346074A0121EB
:100CE80003F047F803B030BD77610A088E610A083F
:100CF800DB600A08DF600A08441300204F610A0815
:100D080010B5044603F07CFC074902F0F2FF0749DE
:100D18002046FFF78AFF30B903F072FCBDE81040A7
:100D2800034902F0E6BF10BDA0610A0877610A080E
:100D3800BA610A0810B5044603F062FC074902F0DC
:100D4800D8FF07492046FFF770FF30B903F058FC79
:100D5800BDE81040034902F0CCBF10BDCC610A08C1
:100D680077610A08E3610A0810B5044603F048FCF5
:100D7800094902F0BEFF09492046FFF756FF30B97E
:100D880003F03EFCBDE81040054902F0B2BF204622
:100D9800BDE81040FFF70EBFF2610A0877610A0844
:100DA8000D620A0810B5044603F02AFC094902F04E
:100DB800A0FF09492046FFF738FF30B903F020FCAF
:100DC800BDE81040054902F094BF2046BDE8104038
:100DD800FFF7F0BE20620A0877610A083E620A0837
:100DE8002DE9FF41044603F00BFC1E4902F081FF88
:100DF8001D492046FFF719FF38B903F001FC1B49CC
:100E080004B0BDE8F04102F074BF19492046FFF76D
:100E18002FFD184907462046FFF71DFE16490546CF
:100E28002046FFF718FE154906462046FFF713FE31
:100E3800134980462046FFF71BFD0446114B3146F7
:100E48001A882846FFF782FA03F0DAFB03948DE844
:100E580060013B460C4A012102F08BFF04B0BDE85B
:100E6800F08100BF54620A0877610A083E620A08E6
:100E78006E620A08DB600A08DF600A086D630A0808
:100E880076620A084413002083620A08F8B500282D
:100E980000F0988003782B2B04D02D2B03D1013040
:100EA800012501E0013000250378742B00F08580CE
:100EB80003F0DF034E2B00F08380492B51D0002430
:100EC80001462046424F4FF00A0E0A4611F8013BF0
:100ED800A3F130065FFA86FCBCF1090F06D8B842C8
:100EE800CABF01340EFB006064B2EEE72E2B12D1AC
:100EF800374F511C0A260A4611F8013B303B5FFA6E
:100F080083FEBEF1090F06D8B842F4DC013C06FBAB
:100F1800003064B2EFE7137803F0DF03452B26D1E6
:100F280053782D2B02D10232012104E02B2B14BF60
:100F3800013202320021013A00230A2712F8016F18
:100F4800303E5FFA86FEBEF1090F0DD807FB03633A
:100F5800E618262EF2DD21B1002D33D04FF00040E7
:100F6800F8BD8DB31B48F8BD11B15B4200E000230A
:100F78001C4404F09BFB002C0DDD174F0026E207F4
:100F880004D5F3B257F8231004F0E4FB641006F11B
:100F98000106F4D10DE0114F644200264CB1E3077D
:100FA80004D5F3B257F8231004F0D4FB64100136CB
:100FB800F4E75DB100F10040F8BD4FF07E50F8BD98
:100FC8000748F8BD0020F8BD4FF0FF40F8BD00BF4E
:100FD800CBCC0C00000080FF180300200003002089
:100FE8000000C07F2DE9F04F044689B05B49FFF748
:100FF8003FFC5B492046FFF72EFD5A49064620462E
:10100800FFF729FD002E814605DC03F0F9FA564961
:1010180002F06FFE9FE055492046FFF7DBFC834650
:101028000120FFF7A3F901F079FE0025DBF8043071
:1010380008AC44F8043D29462046FFF7E3FA036864
:101048002BB11A7A062A02D1D3F810A002E0FFF7D2
:10105800A5F8824600215046FFF7D8FD0121074632
:101068005046FFF7D3FDDAF80430804602212046C7
:101078000793FFF7C7FA0368EBB11A7A052A14D861
:10108800DFE802F0190F0F030308D3E9040104F0A5
:101098001BFB0EE0D3E9040104F016FB00F1004449
:1010A8000AE01869FFF7F2FE03E0D3E9040104F04F
:1010B800F3F9044600E00024484604F0F7FA014634
:1010C800204604F0FBFB044603F09AFA82462046C9
:1010D80003F034FF264ACDE902013B460121504680
:1010E800CDF8008002F045FE224B48461B88049349
:1010F800214B1B88059303F00FFF02460B46002087
:101108001E4904F099F804F0C7F94FF07E51824661
:1011180004F0B4FC78B95146204604F011FA51465F
:1011280004464FF07E5004F00BFA0146204604F0C6
:10113800C5FB024600E022460599049801F0BCFF71
:10114800013502464146384601F0F4FDB5427FF4C8
:101158006DAF01F0E9FD09B0BDE8F08F03630A083F
:10116800BA600A0885630A08C1620A08CF600A08DB
:10117800DB620A0874130020661300200000F03FA9
:101188002DE9F8432E4B01221A7002F0DBFA2D48A4
:101198002D4A00F11003436040F6B8338360002302
:1011A800C3602A4B2A4903602A4F03F013FC2A4BD9
:1011B8003F68D3F800E0294B294A9F63294F1668F6
:1011C8003F68294A1F64294F15683F68284A9F6469
:1011D800284F1468D7F80090274F284AD7F800807E
:1011E800274F1068D7F800C0264F274A3F68116874
:1011F8009F66264A264F12683F68C3F800E09E6043
:101208001A631D619C6118629962C3F85090C3F813
:101218005880C3F860C01F671E4BC3F800E09E608B
:101228001D611A631C4A9C61126818629962C3F8AE
:101238003890C3F84080C3F848C01A65BDE8F88301
:101248006507002068070020F0040020545F0A08A2
:10125800C9000A08AC030020A0030020C403002032
:10126800A4030020300300209C0300203C0400203D
:1012780040030020B803002034030020BC030020F2
:101288003C030020C0030020B4030020A803002072
:101298003803002044030020B00300202DE9F04F5C
:1012A8001E4685B0BDF9383015469A1A002AB8BFCF
:1012B80052420092721A002AB8BF524201920C465A
:1012C800009A019981468A42BDF83CA005DD324664
:1012D8001E46134622462C461546B44205DD2A46CC
:1012E8001D4613462246344616465A1B002AC4EBAE
:1012F8000608B8BF52421FFA88F803920FFA88F717
:1013080002229D42B4BF01234FF0FF3397FBF2F74F
:101318000293B4421FDC019A009B48469342D9F8D5
:101328000030C8BF2246D3F810B0C8BF294653467C
:10133800DCBF2A462146D847039BFF1ABBB21FB21F
:10134800002F05DA029A08EB030715442DB23FB2C5
:10135800013424B2DDE705B0BDE8F08F2DE9F3478D
:10136800044691460D469846BDF82C600768BDF9BD
:1013780028A00096FF69B84723680AF1FF32009653
:101388004A44DF6929464346204612B2B8472368D3
:1013980000969F694A46534629462046B84723681F
:1013A80008F1FF310A9629449D694A46534620466A
:1013B800AC4609B202B0BDE8F047604737B5013B1B
:1013C800BDF81850134404681BB200930195646972
:1013D8000B46A04703B030BD37B5BDF818500468B8
:1013E8008DE82400013B0B4464691BB2A04703B09D
:1013F80030BD2DE9F347054617460C46BDF9288050
:10140800BDF82C9001EB030A54450BDA2B68CDF894
:1014180000909E69214643463A4628460134B04723
:1014280024B2F1E702B0BDE8F08713B5B0F90E2099
:101438000468019100920022B0F90C30646A1146E8
:10144800A04702B010BD7047018181814FF6FF713E
:1014580030B5074D00244281C281012244600560F5
:101468004476048244820276C1828182827630BDCB
:10147800BC630A082DE9F04F87B09A46BDF944309D
:10148800BDF940800293BDF848309146039308F1B6
:1014980007020823002492FBF3FB25468DE803008E
:1014A8000593029A2BB29A4225DD09EB05031BB27C
:1014B8000026049333B243451ADA059AB1B293FB76
:1014C800F2F30AEB0402D25C802001F0070340FA31
:1014D80003F31A420AD0019B049A1944009B09B2EB
:1014E8001B6800981B691F46039BB8470136E1E754
:1014F80001355C44D5E707B0BDE8F08F2DE9F04F22
:101508008FB00691BDF8601004460791BDF86410CD
:101518009DF868800891B0F90C10069881427DDD2D
:10152800B4F90E10914279DD062101FB080000286C
:1015380074DD02EBC800002870DD03EB830395B26D
:101548000C9305F108039BB2099100260D932F46D1
:10155800A946052E1FBF334B0C9A9B1913F802A0FE
:101568001FFA88F304930499BDF81830B2B201FB4E
:101578000231134409B20A911BB20FFA88F108BF6D
:101588004FF0000A059503910B931AF0010F11D043
:10159800B8F1010F236803D1D3F810B0079B14E00A
:1015A800079A0192039A0092D3F824B013460FFACF
:1015B80089F218E0079B089A934217D0B8F1010FF7
:1015C800236807D1D3F810B013463AB20B992046D6
:1015D800D8470BE0089A0192039A0092D3F824B0F6
:1015E8001346BDF914200A992046D847049B049A4B
:1015F8009944059B013713449BB205930D9BBFB2D9
:101608009F424FEA5A0A1FFA89F9BED1099B01364F
:10161800013B13F0FF0376B2099398D10FB0BDE8F0
:10162800F08F00BFEC630A0830B50A2985B004467C
:101638000B4604D1027E438A03EBC20323E00D2943
:1016480024D0057EB0F91220B0F910100295C58A91
:101658000195858A0095FFF751FF227E238A91B272
:1016680001EB410003EB4003A07E1BB2238268B16B
:10167800B4F90C006FF0050505FB0202934205DD85
:10168800638A03EBC103638200232382012005B030
:1016980030BD018242827047C18281827047817663
:1016A8007047B0F90C00704702F04CB802F08AB8E5
:1016B80010B50446C06808B102F0BAF923781BB126
:1016C8000021E07903F002F9204610BD38B5044640
:1016D800C0680D4608B102F0ABF9A379062B0CBF20
:1016E80004200320684380B2A08002F099F9E060EA
:1016F80028B1A288002104F056FA658038BDA08080
:10170800608038BD10B504460121C07903F0DEF8C9
:101718000021E07903F0EBF80123237010BD38B500
:10172800037805460C461BB10021C07903F0CEF8BA
:101738002B78EC7153B1A4B22046012103F0C6F80E
:101748002046BDE83840002103F0D1B838BD70B557
:10175800044616460025837105700572C56005614B
:10176800FFF7B4FF20463146FFF7D9FF204670BD8A
:10177800C368002B00F08E852DE9F041044683797B
:1017880086B0023BDBB2042B96BF294A322552F8B9
:101798002350FFF78BFF2369C01AA842F9D372B60A
:1017A800A179A3880229ADF80A30D4F80CE000F03A
:1017B8007282072900F06F82062900F03284052919
:1017C80000F0AB83082900F0A883002940F0638566
:1017D800184A4FF40006BDF80A309BB2002B00F0FF
:1017E80095830496BDF80A300EF10305033B9BB2BE
:1017F800ADF80A309EF80030DBB28DF807309EF85D
:101808000130DBB28DF806309EF80230DBB28DF87D
:1018180008309DF807709DF806309DF808001B02F7
:1018280043EA0743034303938DF805101BE100BF08
:10183800E8680A0830130020004600BF00BF00BF58
:1018480000BF00BF00BF00BF00BF00BF00BF00BF98
:1018580000BF00BF00BF00BF00BF00BF00BF00BF88
:1018680000BF00BF00BF00BF00BF00BF00BF00BF78
:1018780000BF00BF00BF00BF00BF00BF00BF00BF68
:1018880000BF00BF00BF00BF00BF00BF00BF00BF58
:1018980000BF00BF00BF00BF00BF00BF00BF00BF48
:1018A80000BF00BF00BF00BF00BF00BF00BF00BF38
:1018B80000BF00BF00BF00BF00BF00BF00BF00BF28
:1018C80000BF00BF00BF00BF00BF00BF00BF00BF18
:1018D80000BF00BF00BF00BF00BF00BF00BF00BF08
:1018E80000BF00BF00BF00BF00BF00BF00BF00BFF8
:1018F80000BF00BF00BF00BF00BF00BF00BF00BFE8
:1019080000BF00BF00BF00BF00BF00BF00BF00BFD7
:1019180000BF00BF00BF00BF00BF00BF00BF00BFC7
:1019280000BF00BF00BF00BF00BF00BF00BF00BFB7
:1019380000BF00BF00BF00BF00BF00BF00BF00BFA7
:10194800E3791068C3EBC30300EB8307BF8850F843
:1019580023305F83004600BF00BF00BF00BF00BF49
:1019680000BF00BF00BF00BF00BF00BF00BF00BF77
:1019780000BF00BF00BF00BF00BF00BF00BF00BF67
:1019880000BF00BF00BF00BF00BF00BF00BF00BF57
:1019980000BF00BF00BF00BF00BF00BF00BF00BF47
:1019A80000BF00BF00BF00BF00BF00BF00BF00BF37
:1019B80000BF00BF00BF00BF00BF00BF00BF00BF27
:1019C80000BF00BF00BF00BF00BF00BF00BF00BF17
:1019D80000BF00BF00BF00BF00BF00BF00BF00BF07
:1019E80000BF00BF00BF00BF00BF00BF00BF00BFF7
:1019F80000BF00BF00BF00BF00BF00BF00BF00BFE7
:101A080000BF00BF00BF00BF00BF00BF00BF00BFD6
:101A180000BF00BF00BF00BF00BF00BF00BF00BFC6
:101A280000BF00BF00BF00BF00BF00BF00BF00BFB6
:101A380000BF00BF00BF00BF00BF00BF00BF00BFA6
:101A480000BF00BF00BF00BF00BF00BF00BF049BB6
:101A58005B0804939DF805300133DBB2172B8DF832
:101A6800053000F2DB82E3791068C3EBC30300EBB7
:101A78008307BF8850F823301F830398049B1842BC
:101A88007FF4DAAE004600BF00BF00BF00BF00BF52
:101A980000BF00BF00BF00BF00BF00BF00BF00BF46
:101AA80000BF00BF00BF00BF00BF00BF00BF00BF36
:101AB80000BF00BF00BF00BF00BF00BF00BF00BF26
:101AC80000BF00BF00BF00BF00BF00BF00BF00BF16
:101AD80000BF00BF00BFE3791068C3EBC30300EB8E
:101AE8008307BF8850F823305F83004600BF00BFDC
:101AF80000BF00BF00BF00BF00BF00BF00BF00BFE6
:101B080000BF00BF00BF00BF00BF00BF00BF00BFD5
:101B180000BF00BF00BF00BF00BF00BF00BF00BFC5
:101B280000BF00BF00BF00BF00BF00BF00BF00BFB5
:101B380000BF00BF00BF00BF00BF00BF00BF00BFA5
:101B480000BF00BF00BF00BF00BF00BF00BF00BF95
:101B580000BF00BF00BF00BF00BF00BF00BF00BF85
:101B680000BF00BF00BF00BF00BF00BF00BF00BF75
:101B780000BF00BF00BF00BF00BF00BF00BF00BF65
:101B880000BF00BF00BF00BF00BF00BF00BF00BF55
:101B980000BF00BF00BF00BF00BF00BF00BF00BF45
:101BA80000BF00BF00BF00BF00BF00BF00BF00BF35
:101BB80000BF00BF00BF00BF00BF00BF00BF00BF25
:101BC80000BF00BF00BF00BF00BF00BF00BF00BF15
:101BD80000BF00BF00BF00BF00BF00BF00BF00BF05
:101BE80000BF00BF00BF00BF00BF00BF00BF00BFF5
:101BF80000BF00BF00BF00BF00BF00BF00BF00BFE5
:101C080000BF00BF00BF00BF00BF00BF00BF00BFD4
:101C180000BF00BF00BF00BF00BF00BF00BF00BFC4
:101C280000BF00BF00BF00BF00BF00BF00BF00BFB4
:101C380000BF00BF00BF00BF00BF00BF00BF00BFA4
:101C480000BF00BF00BF00BF00BF00BF00BF00BF94
:101C580000BF00BF00BF00BF00BF00BF00BF00BF84
:101C680000BF00BF00BF00BF00BF00BF00BF00BF74
:101C780000BF00BF00BF00BF00BF00BF00BF00BF64
:101C880000BF00BF00BF00BF00BF00BF00BF00BF54
:101C980000BF00BFDBE6BDF80A30174A9BB24FF41D
:101CA80000050026002B00F031810495BDF80A30AC
:101CB8000EF10301033B9BB2ADF80A309EF80030E9
:101CC800DBB28DF806309EF80130DBB28DF80730B4
:101CD8009EF80230DBB28DF808309DF806309DF88A
:101CE80007009DF80870000240EA03433B43039352
:101CF8008DF8056080E000BF30130020004600BF6B
:101D080000BF00BF00BF00BF00BF00BF00BF00BFD3
:101D180000BF00BF00BF00BF00BF00BF00BF00BFC3
:101D280000BF00BF00BF00BF00BF00BF00BF00BFB3
:101D380000BF00BF00BF00BF00BF00BF00BF00BFA3
:101D480000BF00BF00BF00BF00BF00BF00BF00BF93
:101D580000BF00BF00BF00BF00BF00BF00BF00BF83
:101D680000BF00BF00BF00BF00BF00BF00BF00BF73
:101D780000BF00BF00BF00BF00BF00BF00BF00BF63
:101D880000BF00BF00BF00BF00BF00BF00BF00BF53
:101D980000BF00BF00BFE3791068C3EBC30300EBCB
:101DA8008307BF8850F823305F83004600BF00BF19
:101DB80000BF00BF00BF00BF00BF00BF00BF00BF23
:101DC80000BF00BF00BF00BF00BF00BF00BF00BF13
:101DD80000BF00BF00BF00BF00BF00BF00BF00BF03
:101DE800049B5B0804939DF805300133DBB2172B85
:101DF8008DF8053000F28380E3791068C3EBC303E4
:101E080000EB8307BF8850F823301F830398049B97
:101E180018427FF473AF004600BF00BF00BF00BF89
:101E280000BF00BF00BF00BF00BF00BF00BF00BFB2
:101E380000BF00BF00BF00BF00BF00BF00BFE37905
:101E48001068C3EBC30300EB8307BF8850F8233047
:101E58005F83004600BF00BF00BF00BF00BF00BFD8
:101E680000BF00BF00BF00BF00BF00BF00BF00BF72
:101E780000BF00BF00BF00BF00BF00BF00BF00BF62
:101E880000BF00BF00BF00BF00BF00BF00BF00BF52
:101E980000BF00BF00BF00BF00BF00BF00BF00BF42
:101EA80000BF00BF00BF00BF00BF00BF00BF00BF32
:101EB80000BF00BF00BF00BF00BF00BF00BF00BF22
:101EC80000BF00BF00BF00BF00BF00BF00BF00BF12
:101ED80000BF00BF00BF00BF00BF00BF00BF00BF02
:101EE80000BF00BF00BF00BF00BF00BF00BF00BFF2
:101EF80000BF00BF00BF00BF00BF00BF70E7BDF854
:101F08000A308E469BB2002B7FF4CFAE62B6FFF745
:101F1800CDFB206106B0BDE8F0815E4B5E4A1846F5
:101F280011684FF400080027BDF80A2092B2002A71
:101F3800ECD0CDF81080BDF80A200EF10305033A65
:101F480092B2ADF80A209EF80020D2B28DF8062091
:101F58009EF80120D2B28DF807209EF80220D2B256
:101F68008DF808209DF806209DF807E09DF808C028
:101F78004FEA0E2E4EEA024242EA0C0203928DF814
:101F88000570E2795E68C2EBC20201EB820EBEF810
:101F980004E051F822200596A2F818E0039E049A5E
:101FA800164223D05A68059E921B4F2AFAD9E27925
:101FB800C2EBC20201EB820EBEF804E051F8222007
:101FC800A2F81AE0426805925A68059E921B072AF1
:101FD800FAD9049A520804929DF805200132D2B227
:101FE800172A8DF80520CCD9AE469DE75A68059E7C
:101FF800921B182AFAD9E279C2EBC20201EB820ECF
:10200800BEF804E051F82220A2F81AE042680592CE
:102018005A68059E921B452AFAD9DAE7AE46FFF7B9
:10202800DABB1D4A4FF000450026BDF80A309BB2C6
:10203800002B3FF46BAF0495BDF80A300EF1040194
:10204800043B9BB2ADF80A309EF80030DBB28DF845
:1020580007309EF80130DBB28DF806309EF802306A
:10206800DBB28DF808309EF80330DBB28DF809300A
:102078009DF807309DF806709DF808E03F049DF82C
:10208800090047EA0363034343EA0E2303938DF8E9
:1020980005607EE0001000E030130020004600BF1D
:1020A80000BF00BF00BF00BF00BF00BF00BF00BF30
:1020B80000BF00BF00BF00BF00BF00BF00BF00BF20
:1020C80000BF00BF00BF00BF00BF00BF00BF00BF10
:1020D80000BF00BF00BF00BF00BF00BF00BF00BF00
:1020E80000BF00BF00BF00BF00BF00BF00BF00BFF0
:1020F80000BF00BF00BF00BF00BF00BF00BF00BFE0
:1021080000BF00BF00BF00BF00BFE3791068C3EB8A
:10211800C30300EB8307BF8850F823305F83004672
:1021280000BF00BF00BF00BF00BF00BF00BF00BFAF
:1021380000BF00BF00BF00BF00BF00BF00BF00BF9F
:1021480000BF00BF00BF00BF00BF00BF00BF00BF8F
:1021580000BF00BF00BF00BF00BF00BF00BF00BF7F
:1021680000BF00BF00BF00BF00BF00BF00BF00BF6F
:1021780000BF00BF00BF00BF00BF00BF049B5B08DB
:1021880004939DF805300133DBB21F2B8DF8053021
:102198007ED8E3791068C3EBC30300EB8307BF88DD
:1021A80050F823301F830398049B18427FF476AFBE
:1021B800004600BF00BF00BF00BF00BF00BF00BF98
:1021C80000BF00BF00BF00BF00BF00BF00BF00BF0F
:1021D80000BF00BF00BF00BFE3791068C3EBC303B3
:1021E80000EB8307BF8850F823305F83004600BFA9
:1021F80000BF00BF00BF00BF00BF00BF00BF00BFDF
:1022080000BF00BF00BF00BF00BF00BF00BF00BFCE
:1022180000BF00BF00BF00BF00BF00BF00BF00BFBE
:1022280000BF00BF00BF00BF00BF00BF00BF00BFAE
:1022380000BF00BF00BF00BF00BF00BF00BF00BF9E
:1022480000BF00BF00BF00BF00BF00BF00BF00BF8E
:1022580000BF00BF00BF00BF00BF00BF00BF00BF7E
:1022680000BF00BF00BF00BF00BF00BF00BF00BF6E
:1022780000BF00BF00BF00BF00BF00BF00BF00BF5E
:1022880000BF00BF00BF00BF00BF00BF00BF75E7B1
:102298008E46CAE67047032900F02E811E4A4FF485
:1022A80000050026BDF80A309BB2002B3FF42EAE85
:1022B8000495BDF80A30E079033B9BB2ADF80A30CB
:1022C8009EF800300EF10301DBB28DF807309EF85E
:1022D8000130C0EBC000DBB28DF808309EF8023048
:1022E800D2F800E0DBB28DF806309DF807709DF853
:1022F80008300EEB800C1B0243EA07439DF806707A
:10230800BCF804C05EF820003B4303938DF80560D9
:10231800A0F81AC07DE000BF30130020049B5B08C2
:102328000493004600BF00BF00BF00BF00BF00BF4E
:1023380000BF00BF00BF00BF00BF00BF00BF00BF9D
:1023480000BF00BF00BF00BF00BF00BF00BF00BF8D
:1023580000BF00BF00BF00BF00BF00BF00BF00BF7D
:1023680000BF00BF00BF00BF00BF00BF00BF00BF6D
:1023780000BF00BF00BF00BF00BF00BF00BF00BF5D
:1023880000BF00BF00BF00BF00BF00BF00BF00BF4D
:1023980000BF00BF00BF00BF00BF00BF00BF00BF3D
:1023A80000BF00BF00BF00BFE07917689DF8053087
:1023B800C0EBC00007EB800EBEF804E057F8200021
:1023C8000133DBB28DF80530A0F818E0004600BFF5
:1023D80000BF00BF00BF00BF00BF00BF00BF00BFFD
:1023E80000BF00BF00BF00BF00BF00BF00BF00BFED
:1023F80000BF00BF00BF9DF80530182B7AD0E379E5
:102408001068C3EBC30300EB8307BF8850F8233081
:102418005F830398049B184280D1004600BF00BF29
:1024280000BF00BF00BF00BF00BF00BF00BF00BFAC
:1024380000BF00BF00BF00BF00BF00BFE379106846
:10244800C3EBC30300EB8307BF8850F823301F8317
:102458009DF805300133DBB28DF80530049B5B082D
:102468000493004600BF00BF00BF00BF00BF00BF0D
:1024780000BF00BF00BF00BF00BF00BF00BF00BF5C
:1024880000BF00BF00BF00BF00BF00BF00BF00BF4C
:1024980000BF00BF00BF00BF00BF00BF00BF00BF3C
:1024A80000BF00BF00BF00BF00BF00BF00BF00BF2C
:1024B80000BF00BF00BF00BF00BF00BF00BF00BF1C
:1024C80000BF00BF00BF00BF00BF00BF00BF00BF0C
:1024D80000BF00BF00BF00BF00BF00BF00BF00BFFC
:1024E80000BF00BF00BF00BF00BF00BF9DF80530A0
:1024F800182B84D18E46D5E6174A4FF400050026DE
:10250800BDF80A309BB2002B3FF400AD0495BDF82E
:102518000A300EF10301033B9BB2ADF80A309EF876
:102528000030DBB28DF807309EF80130DBB28DF851
:1025380006309EF80230DBB28DF808309DF807703F
:102548009DF806309DF808001B0243EA0743034341
:1025580003938DF80560E0E030130020004600BFCB
:1025680000BF00BF00BF00BF00BF00BF00BF00BF6B
:1025780000BF00BF00BF00BF00BF00BF00BF00BF5B
:1025880000BF00BF00BF00BF00BF00BF00BF00BF4B
:1025980000BF00BF00BF00BF00BF00BF00BF00BF3B
:1025A80000BF00BF00BF00BF00BF00BF00BF00BF2B
:1025B80000BF00BF00BF00BF00BF00BF00BF00BF1B
:1025C80000BF00BF00BF00BF00BF00BF00BF00BF0B
:1025D80000BF00BF00BF00BF00BF00BF00BF00BFFB
:1025E80000BF00BF00BF00BF00BF00BF00BF00BFEB
:1025F80000BF00BF00BF00BF00BF00BF00BF00BFDB
:1026080000BF00BF00BF00BF00BF00BF00BF00BFCA
:1026180000BF00BF00BF00BF00BF00BF00BF00BFBA
:1026280000BF00BF00BF00BF00BF00BF00BF00BFAA
:1026380000BF00BF00BF00BF00BF00BF00BF00BF9A
:1026480000BF00BF00BF00BF00BF00BF00BF00BF8A
:1026580000BF00BF00BF00BF00BF00BF00BF00BF7A
:1026680000BF00BF00BF00BF00BF00BF00BF00BF6A
:1026780000BF00BF00BF00BF00BF00BF00BFE379BD
:102688001068C3EBC30300EB8307BF8850F82330FF
:102698005F83004600BF00BF00BF00BF00BF00BF90
:1026A80000BF00BF00BF00BF00BF00BF00BF00BF2A
:1026B80000BF00BF00BF00BF00BF00BF00BF00BF1A
:1026C80000BF00BF00BF00BF00BF00BF00BF00BF0A
:1026D80000BF00BF00BF00BF00BF00BF00BF00BFFA
:1026E80000BF00BF00BF00BF00BF00BF00BF00BFEA
:1026F80000BF00BF00BF00BF00BF00BF00BF00BFDA
:1027080000BF049B5B0804939DF805300133DBB2DE
:10271800172B8DF8053000F2E380E3791068C3EBDE
:10272800C30300EB8307BF8850F823301F83039847
:10273800049B18427FF412AF004600BF00BF00BFE1
:1027480000BF00BF00BF00BF00BF00BF00BF00BF89
:1027580000BF00BF00BF00BF00BF00BF00BF00BF79
:1027680000BF00BF00BF00BF00BF00BF00BF00BF69
:1027780000BF00BF00BF00BF00BF00BF00BF00BF59
:1027880000BF00BF00BF00BF00BF00BF00BF00BF49
:1027980000BF00BF00BF00BF00BF00BF00BF00BF39
:1027A80000BF00BF00BF00BF00BF00BF00BF00BF29
:1027B80000BF00BF00BF00BF00BFE3791068C3EBD4
:1027C800C30300EB8307BF8850F823305F830046BC
:1027D80000BF00BF00BF00BF00BF00BF00BF00BFF9
:1027E80000BF00BF00BF00BF00BF00BF00BF00BFE9
:1027F80000BF00BF00BF00BF00BF00BF00BF00BFD9
:1028080000BF00BF00BF00BF00BF00BF00BF00BFC8
:1028180000BF00BF00BF00BF00BF00BF00BF00BFB8
:1028280000BF00BF00BF00BF00BF00BF00BF00BFA8
:1028380000BF00BF00BF00BF00BF00BF00BF00BF98
:1028480000BF00BF00BF00BF00BF00BF00BF00BF88
:1028580000BF00BF00BF00BF00BF00BF00BF00BF78
:1028680000BF00BF00BF00BF00BF00BF00BF00BF68
:1028780000BF00BF00BF00BF00BF00BF00BF00BF58
:1028880000BF00BF00BF00BF00BF00BF00BF00BF48
:1028980000BF00BF00BF00BF00BF00BF00BF00BF38
:1028A80000BF00BF00BF00BF00BF00BF00BF00BF28
:1028B80000BF00BF00BF00BF00BF00BF00BF00BF18
:1028C80000BF00BF00BF00BF00BF00BF00BF00BF08
:1028D80000BF00BF00BF00BF00BF00BF00BF10E7C0
:1028E8008E460DE64388F0B58B4245D9057AC2F38A
:1028F8000743C2F30724D6B245B16B436C436E431A
:10290800C3F30723C4F30724C6F3072690F806C0C9
:10291800C768BCF1060F0CBF042503256943BCF149
:10292800080F07EB010524D84FF0010E0EFA0CFE34
:102938001EF4D27F0CD11EF0400F0DD11EF0100FE7
:1029480017D0FF2B08BFFE237B546E70AC70F0BD10
:102958007C546B70AE70F0BD7B546C70AE70037AB3
:10296800120E0BB9D2B202E05A43C2F30722EA7040
:10297800F0BD7B546C70AE70F0BD408870474A1C47
:10298800037AD2B29A4270B51ED0013B13F0FF030E
:10299800C4680CD0FF290FBF4FF6FF71110201F177
:1029A800FF3191FBF3F30CBF91FBF3F39BB2254688
:1029B800291B868889B28E4205D92978594309127C
:1029C80005F8011BF4E7027270BD000008B500F0BD
:1029D800B9FE00F0B7FE014B186008BD30130020A7
:1029E800074AC312D15C00F01F03D35C054AC0F349
:1029F8004510105C43EA014343EA0020704700BFDA
:102A080034690A0854690A08F8B590F84030044651
:102A18000BB1C66B03E00846FFF7E2FF06461C341D
:102A28002046FFF7AAFF07460025A9B2B94205D2FA
:102A380032462046FFF756FF0135F6E7F8BD00009D
:102A480010B50446034B40F81C3BFEF731FE204608
:102A580010BD00BF04690A0810B50446FFF7F0FF6F
:102A68002046FDF718FB204610BD2DE9F843044623
:102A7800081E1F46C0F2BA80002AC0F2B780B4F917
:102A88000C30834240F3B280B4F90E30934240F3E5
:102A9800AD80637E022B09D0032B10D0012B13D1FC
:102AA8002389013B9B1A024618B20DE02389013B9A
:102AB800181A638900B2013B9A1A12B204E06389BA
:102AC800013B1B1A10461AB2A36B23B191B280B214
:102AD8009847002577E094F830E094F833300EF00A
:102AE8000308002B41D094F831C094F8329090FB41
:102AF800FCF592FBF9F61EF0200F18BF03F1FF3129
:102B0800ADB20CFB15001CBF4D1BADB21EF0100F73
:102B180018BF94F83410B6B218BF01F1FF3109FBA1
:102B280016221CBF8E1BB6B21EF0400F03BF3146E3
:102B38009BB22E4694F8343008BF0D461EF0800F25
:102B480000B212B209D0E90707D5F64305FB0335F1
:102B5800354488F00308ADB202E003FB0565ADB269
:102B68000CFB05F509FB05F500E01D4618F0020F02
:102B780018BF94F8313080B21EBF03F1FF33181A22
:102B880080B218F0010F18BF94F8323092B21EBF0D
:102B980003F1FF339A1A92B21EF0040F03BF1146D5
:102BA80094F83130024694F8323008BF08461EF0D7
:102BB800080F06D0C10704D500FB0333013B981A60
:102BC80001E003FB002094F84030284404F11C067F
:102BD80085B20BB1E26B03E03846FFF701FF02460E
:102BE80029463046BDE8F843FFF77CBEBDE8F883C8
:102BF800F8B50E46154604461F4612B209B2FEF74E
:102C080023FC06FB05F19DF81C303A4689B204F115
:102C18001C00FEF79CFD0A4B84F8316023609DF888
:102C2800183084F8325084F83030002384F8333078
:102C380084F83430A36384F840302046F8BD00BFE0
:102C480004690A08C90001F4FC61000241EAD202E1
:102C580000F478401043704700F074BD38B50E4C4E
:102C68000E4B04F11C059A680D4B28461A60FEF7B6
:102C780049FD20460021FEF712FD28461E21FFF7D8
:102C88007EFEFF2200211046FFF7DCFF01462046AA
:102C9800BDE83840FEF700BD78130020541300202B
:102CA800C813002038B505460024AB689C420DD2F5
:102CB80020210A4800F0B7FF2146284600F0C0FF4F
:102CC8000178064800F0AFFF0134EEE7034B9A683D
:102CD800034B1A60034B01221A7038BD54130020AD
:102CE800C8130020CC130020431E632B07B510D84F
:102CF800FF23009300231946642201F0A3F8C1B210
:102D08000548FFF73CFE044803B05DF804EBFEF706
:102D18002FBD03B05DF804FB941300200021014887
:102D2800FFF772BE781300200148FEF721BD00BFEF
:102D3800941300201F4B2DE9F34118601E4B904659
:102D480019601E4B07281A881D4B05461A801D4B13
:102D58004FF001020C461A7008DC0F2911DC1A4BDF
:102D680053F82170194B53F8216012E00F2808DC42
:102D7800072906DC164B53F82170164B53F82160CF
:102D880007E001F03DFC00942B46134A012100F0B6
:102D9800F0FF00242DB2A74208DD311943462A4628
:102DA80009B20E48FFF761FE0134F4E702B0BDE84E
:102DB800F08100BFBC130020C01300204413002082
:102DC8006E130020501300207C6A0A08C4690A08A0
:102DD8005C6A0A0894690A080A6A0A0878130020D3
:102DE80038B50C4C0C4D20460021FFF70DFE2B8802
:102DF800204607221D21FFF738FE20462B88072290
:102E08001E21FFF732FE04F11C00BDE83840FEF732
:102E1800AFBC00BF781300206C1300202DE9F043ED
:102E28003A4C85B000213A48FFF7EEFD0022B4F98C
:102E380000103748FEF72DFC364B35481968002539
:102E480000F044FF2F46DFF8DC90DFF8CC80D9F89B
:102E58000010022391FBF3F301339F422E4E11DC45
:102E6800B8F80030216802932944082206238DE827
:102E78000C0009B2294B26480C35FEF7FBFA01373E
:102E8800ADB2E4E7236801EB4101083303EB4101EC
:102E9800B3881022029308238DE80C0009B2204B56
:102EA80000221B48FEF7E6FA1E4B226819686FF0ED
:102EB80005034B43013A183B9A42226014DA14483E
:102EC800FEF7EFFB114B18491860184B09781A6880
:102ED8000F4801328A421A60A4BF00221A601B6898
:102EE80036F81310FEF7D8FB114B1B783BB1114B8A
:102EF8001A88114B1968114B1868FFF71BFF104807
:102F080005B0BDE8F043FEF733BC00BF4C1300200A
:102F1800781300205413002038130020046A0A088C
:102F2800B4690A08C8130020800400207013002028
:102F3800501300206E130020C0130020BC13002083
:102F48009413002000000000F8B50D12CE1015F003
:102F5800F8054FEAC10108BF051206F0FC0617463E
:102F6800CCB208BF05F0F80516B9C61006F0FC0685
:102F78000CB9C000C4B225424FF07C51384626D067
:102F880002F090FD08BB384601F0D8FF0022484BFC
:102F980001F074FE44A3D3E9002302F023F80246AB
:102FA8000B4601F06DFE02460B463FA1D1E9000138
:102FB80001F064FE02F050FA4FF07C51C5B2384679
:102FC80002F070FD002867D059E0FF2557E0354230
:102FD80030D002F067FD08BB384601F0AFFF002291
:102FE800334B01F04BFE30A3D3E9002301F0FAFF85
:102FF80002460B4601F044FE02460B462AA1D1E9DF
:10300800000101F03BFE02F027FA4FF07C51C5B2F7
:10301800384602F047FD00283CD000E0FF2539463D
:10302800384602F08FFA234902F094FB02F07EFD45
:10303800C6B232E002F036FD00BB384601F07EFF32
:1030480000221B4B01F01AFE17A3D3E9002301F05D
:10305800C9FF02460B4601F013FE02460B4612A1B9
:10306800D1E9000101F00AFE02F0F6F94FF07C51B7
:10307800C6B2384602F016FD70B100E0FF263946A8
:10308800384602F05FFA0B4902F064FB02F04EFD8D
:10309800C4B202E0FF2600E0FF242246314628465B
:1030A800BDE8F840FFF7CEBD0000000000E06F402B
:1030B8000000E03F00007F432DE9F84F04124FEA7B
:1030C800E00AC000C0B21F27C0EB002090FBF7F653
:1030D800C800C0B2C0EB002090FBF7F01546F6B26E
:1030E800C0B2801B894602F0E1FA294602F032FBA1
:1030F8008046304602F0DAFA0146404602F022FAEB
:1031080002F014FD5FFA80F84FEAE9000AF0FC0AC1
:1031180000F0FC004FF03F0BCAEB0A2AC0EB00207E
:103128009AFBFBFA90FBFBF05FFA8AFAC0B2CAEB93
:10313800000002F0BBFA294602F00CFB0646504696
:1031480002F0B4FA0146304602F0FCF902F0EEFC57
:103158004FEA292101F0F80104F0F804C6B2C4EBE3
:103168000424C1EB012094FBF7F490FBF7F0E4B2E0
:10317800C0B2001B02F09AFA294602F0EBFA0546A3
:10318800204602F093FA0146284602F0DBF902F0E5
:10319800CDFC42463146BDE8F84FC0B2FFF752BDFC
:1031A80038B54FF07C51044602F07CFC00BB204649
:1031B80001F0C4FE00221A4B01F060FD16A3D3E90A
:1031C800002301F00FFF02460B4601F059FD0246AD
:1031D8000B4611A1D1E9000101F050FD02F014F9EC
:1031E8004FF07C510546204602F05CFC58B100E0E7
:1031F800FF252146204602F0A5F90A4902F0AAFA5D
:1032080002F06EFC00E0FF20C1B20022E8B2BDE887
:103218003840FFF717BD00BF0000000000E06F4016
:103228000000E03F00007F432DE9F843002180487B
:10323800FFF7EAFB0024204602F038FA7D4902F045
:103248003DFB7D4902F086FA7B49054602F020FCE9
:1032580000B9794D284602F043FC1D2C064611DDC5
:10326800A4F11E0002F022FA724902F027FB72490B
:1032780002F070FA0146704802F062F902F030FC80
:10328800054600E0FF250022F6B211463046FFF75A
:10329800D9FC27B20346002239466548FFF7E5FB0B
:1032A800EDB2002229461046FFF7CCFC0122034666
:1032B80039465F48FFF7D9FB002229463046FFF719
:1032C800C1FC01340346022239465948FFF7CDFBB9
:1032D8003C2CB0D10024204602F0E8F9574902F00E
:1032E800EDFAFFF75DFF21B203460322504801348F
:1032F800FFF7BBFB3C2CEED1514F0026304602F0C5
:10330800D5F94E4902F0DAFADFF84491054602464B
:103318003988B9F80000FFF717FE34B203460422D3
:1033280021464348FFF7A1FB2A463988B9F800002F
:10333800FFF7C2FEDFF81C810346052221463C4800
:10334800FFF793FBB8F800102A463888FFF7FCFD12
:103358000622034621463648FFF787FB2A46398866
:10336800B8F80000FFF7A8FE0722034621463048B8
:10337800FFF77BFBB9F800102A46B8F80000FFF702
:10338800E3FD0822034621462948FFF76EFBB9F8FA
:1033980000102A46B8F80000FFF78EFEDFF8B88064
:1033A800DFF8B8900346092221462148FFF75DFB64
:1033B8002A46B8F80010B9F80000FFF7C5FD0A2240
:1033C800034621461A48FFF750FB2A46B8F8001072
:1033D800B9F80000FFF770FE0B2203462146144897
:1033E800FFF743FB174B2A46B8F800101888FFF779
:1033F80063FE0C22034621460D48FFF736FB124BAD
:103408002A4639881888FFF757FE013603460D22E9
:1034180021460748FFF729FB3C2E7FF46FAF0B4886
:10342800FEF7A6F9BDE8F8434FF47A7000F016BD30
:10343800781300200000F04100007F430000704234
:1034480036130020C41300206A13002094130020B0
:10345800441300206C13002076130020681300200A
:10346800C043C0B2542808B50AD800EB4002A0EB0C
:1034780080000138D2B20021C0B2FFF7E3FB08BDDB
:10348800A9280CD85538C1B2A1EB8102013A01EB49
:103498004101D2B2C9B20020FFF7D4FB08BD5630B3
:1034A800C0B2A0EB8001013900EB40000022C9B294
:1034B800C0B2FFF7C7FB08BD2DE9F843DFF850801D
:1034C8000024002635464FF0FF09D8F80030104F89
:1034D800334493FBF9F01844C0B2FFF7C1FF29B297
:1034E80083B222B20B480135FFF7BFFA3C2D2644C0
:1034F800EBD101340E2CE4D13B68074801333B6023
:10350800FEF736F9BDE8F8434FF47A7000F0A6BC30
:1035180048130020781300209413002038B505467E
:103528000C4602F071FB611B013190FBF1F303FBC8
:103538001100284438BD00002DE9F843DFF8688001
:10354800DFF868900024002598F800100020FFF7A5
:10355800E5FF294639F810202046FFF7EBFB013537
:10356800322000F07BFC102D0F4E104FECD10134AF
:10357800082CE8D1002531780020FFF7CFFF294635
:1035880037F810202046FFF7D5FB0135322000F030
:1035980065FC082DEFD101340E2CEBD14FF47A7075
:1035A80000F05CFCFAE700BF80040020381300201C
:1035B80008B5094B1B780BB1FFF7BEFF074B1B780B
:1035C8000BB1FFF72BFC064B1B781BB1BDE808407D
:1035D800FFF772BF08BD00BF64130020CC130020A2
:1035E800341300202DE9F04F454C85B000F0AAF8BF
:1035F800444D082202238DE80C003C2103230E22AF
:103608002046FFF7F5FA2A463F49204601F0E2F93D
:1036180000221146FF20FFF715FB3C4B00221880C3
:10362800FF2110460393FFF70DFBDFF808B10021D7
:10363800ABF80000FF220846FFF704FBDFF8F8A00C
:10364800FF22AAF8000000211046FFF7FBFADFF876
:10365800EC900022A9F80000A521FF20FFF7F2FA5C
:10366800DFF8DC80FF22A8F8000011460020FFF7F1
:10367800E9FA274F8022388000211046FFF7E2FA46
:10368800244EFF22308011461046FFF7DBFA039BD9
:10369800214AB3F800E0BBF800C0204BB8F800108E
:1036A800BAF800A0B9F8009010803A88A3F800E0B2
:1036B800A3F802C0A3F804A0A3F8069019815A81C0
:1036C800174B9A853288A3F804E0A3F80CC09A87B0
:1036D800A3F814A0A3F81C90998498862046FDF7B7
:1036E800E0FF104C104B11491860204600F057FAC3
:1036F8002A4620460E4905B0BDE8F04F01F06AB9E8
:1037080078130020F0040020492A0A086C130020CE
:1037180068130020C41300206A1300203813002007
:1037280040040020541300204C130020256A0A0886
:10373800193B0A08441300203613002052130020B6
:103748007613002008B5024B1B681B68019308BD5F
:10375800B001060808B5024B1B689B68019308BDB9
:10376800B001060808B5024B1B68DB68019308BD69
:10377800B001060808B5024B1B681B69019308BD18
:10378800B001060808B5024B1B68DB69019308BD48
:10379800B401060808B5024B1B681B6A019308BDF3
:1037A800B401060808B5024B1B685B68019308BDA5
:1037B8009C01060808B5024B1B68DB68019308BD2D
:1037C8009C01060808B5024B1B681B69019308BDDC
:1037D8009C01060808B5024B1B685B69019308BD8C
:1037E8009C01060808B5024B1B68DB6E019308BDF7
:1037F800B801060808B5024B1B681B6B019308BD8E
:10380800D001060808B5024B1B689B69019308BDE7
:10381800C401060808B5024B1B685B6A019308BD22
:10382800C401060808B5024B1B689B6A019308BDD2
:10383800C401060808B5024B1B68DB6A019308BD82
:10384800C401060808B5024B1B681B6B019308BD31
:10385800C401060808B5024B1B685B6B019308BDE1
:10386800C401060808B5024B1B689B6B019308BD91
:10387800C401060808B5024B1B681B6C019308BD00
:10388800C401060808B5024B1B681B6E019308BDEE
:10389800AC01060808B5024B1B685B6E019308BDB6
:1038A800AC01060808B5024B1B689B6E019308BD66
:1038B800AC01060808B5024B1B68DB6E019308BD16
:1038C800AC01060808B5024B1B681B6F019308BDC5
:1038D800AC01060808B5024B1B685B6F019308BD75
:1038E800AC01060808B5034B1B68D3F88030019378
:1038F80008BD0000AC01060808B5024B1B681B6830
:10390800019308BDD801060808B5024B1B685B681F
:10391800019308BDD801060808B5024B1B681B694E
:10392800019308BDD801060808B5024B1B685B69FE
:10393800019308BDD801060808B5024B1B689B69AE
:10394800019308BDD801060808B5024B1B68DB695E
:10395800019308BDD801060808B5024B1B681B6A0D
:10396800019308BDD801060808B5024B1B685B6BBC
:10397800019308BDA801020808B5024B1B685B68E3
:10398800019308BDA401060808B5024B1B685B69D2
:10399800019308BDA401060808B5024B1B68DB6C3F
:1039A800019308BDA401060808B5024B1B685B6DAE
:1039B800019308BDA401060808B5034B1B68D3F89A
:1039C8009030019308BD0000A401060808B5034B18
:1039D8001B68D3F89C30019308BD0000A4010608B9
:1039E80008B5024B1B681B69019308BDC80106088E
:1039F80008B5024B1B681B6A019308BDCC01060879
:103A080008B5024B1B685B6A019308BDCC01060828
:103A180008B5024B1B68DB6B019308BDCC01060897
:103A280008B5024B1B681B68019308BDA001060876
:103A380008B5024B1B685B68019308BDA001060826
:103A480008B5024B1B689B68019308BDA0010608D6
:103A580008B5024B1B68DB68019308BDA001060886
:103A680008B5024B1B685B6A019308BDA0010608F4
:103A780008B5024B1B68DB6A019308BDA001060864
:103A880008B5024B1B681B6B019308BDA001060813
:103A9800704710B50446FCF7FEFA204610BD00003A
:103AA80070B504460E46074B0025036040F80C5FCE
:103AB800FFF7A0FE30462671FFF764FEA56020469A
:103AC80070BD00BFC46A0A080079FFF763BE000032
:103AD8004FF69C7337B50D4C002563804FF6FF7386
:103AE8002846A3802570FFF747FF02A840F8045D29
:103AF8002A462946FFF776FE019B1E2B04D1032395
:103B0800237011236580A38003B030BDCE1300203D
:103B180010B504460068FFF78BFF204610BD10B5AE
:103B28000446006808B1FFF783FF00232360A36001
:103B3800636010BD38B504460D4600680131FFF7D3
:103B48007FFF10B184E82100012038BD10B503685B
:103B5800044613B143688B4207D22046FFF7EAFFB9
:103B680020B1A3680BB922681370012010BD70B58D
:103B78000E46114604461546FFF7E8FF18B92046D9
:103B8800FFF7CDFF09E02A463146A560206801F01D
:103B9800FFFF2268A3680021D154204670BD38B5C4
:103BA8000023044603604360836003730D4639B104
:103BB800084602F0A0F8294602462046FFF7D7FF3C
:103BC800204638BD884210B50B46044607D0096820
:103BD80019B19A68FFF7CBFF01E0FFF7A0FF204675
:103BE80010BD10B50446002303604360836003736F
:103BF800FFF7E8FF204610BD70B504460E4609B928
:103C0800002070BD6AB18368D5182946FFF79EFF6A
:103C18000028F5D02068A3683146184402F047F818
:103C2800A560012070BD07B500238DF8041001229E
:103C380001A98DF80530FFF7DFFF03B05DF804FB3D
:103C480083688B4201D9006818B9034800230370C0
:103C580070470844704700BFD413002038B5046883
:103C6800054634B1207820B102F056F904F8010B6A
:103C7800F8E7284638BD006808B101F077BF7047FB
:103C8800F8B506460D468F180024BD420CD033689F
:103C980015F8011B9B6830469847002801DB04444F
:103CA800F3E7002C08BF04462046F8BD70B505466A
:103CB8000C46084649B102F01EF82B680246214618
:103CC8002846BDE87040DB68184770BD08B5FFF7A7
:103CD800EDFF08BD03689B68184738B50D210546F8
:103CE800FFF7F8FF0A2104462846FFF7F3FF2044B0
:103CF80038BD38B50546FFF7D9FF04462846FFF713
:103D0800ECFF204438BD012A98BF0A2230B50B4683
:103D18008BB000218DF824100DF12304B3FBF2F5CC
:103D280005FB1233DBB2092B94BF30333733DBB2D8
:103D3800214604F801392B46002DEFD1FFF7B6FFD5
:103D48000BB030BD10B422B90368C9B29B6810BC6F
:103D58001847D2B210BCFFF7D6BFFFF7F3BF38B58C
:103D68000546FFF7EFFF04462846FFF7B6FF204455
:103D780038BD0CB42DE9F04387B000AF07F1380423
:103D880054F8049B05460E4623464A461421381D1E
:103D98003C60FFF765FE132805D8391D2846FFF754
:103DA80085FF044613E000F1080323F00703E84603
:103DB800ADEB030D411C23464A4668463C60FFF7BD
:103DC8004FFE69462846FFF771FF0446C5461EB1F7
:103DD8002846FFF782FF044420461C37BD46BDE84D
:103DE800F04302B0704738B5046805467CB1636893
:103DF800013B63605BB9236820469B689847A368CA
:103E0800013BA3601BB923682046DB689847284616
:103E180038BD0B68036013B15A6801325A607047A5
:103E2800014A024B1A607047826B0A08D8130020B7
:103E3800024B1A68024B1A60704700BF84040020C6
:103E4800DC1300208A4230B507D0039D441AED1ACE
:103E58006C43521A94FBF2F4E01830BD0021FFF7CE
:103E680093BD10B58368044613B1032201469847F1
:103E7800204610BD10B50446FFF7F3FF204610BDDD
:103E880013B50B46044603C88DE8030093E8030006
:103E980084E803009DE8030083E8030002B010BD36
:103EA800034800238360034A034900F093BD00BF21
:103EB800E0130020F00400207D3E0A0808B5144BEA
:103EC80033B100F09DFB03681B699847002816DC96
:103ED800104B33B100F02CFC03681B69984700288D
:103EE80010DC0D4B0BB1AFF300800C4B7BB100F035
:103EF800B5FB03681B699847002806DC08BDAFF3CB
:103F08000080E5E7AFF30080EBE7AFF3008008BD82
:103F18000000000000000000000000000000000099
:103F280008B5FFF7CBFFFFF755FC014B186008BD3C
:103F38006C1400200248034A0349121A01F028BEF3
:103F48000040024004400240406E0A0807B50023C2
:103F580000931A466FF07701FFF738FD03B05DF85C
:103F680004FB000007B543880A2B08D0502B09D161
:103F7800094B1B683BB103B05DF804EB1847FFF72A
:103F8800E5FF06E0002300931A466FF07701FFF77C
:103F98001DFD03B05DF804FBF013002038B5104C8C
:103FA800104D2368AB42104B0CBF012200221A703F
:103FB80002D0FFF7BFFF2560FFF7F4FB01F0FCFD1F
:103FC8000A4B1BB1FFF7EEFBAFF300800021074857
:103FD800FFF71EFDBDE8384000210548FFF7ECBC9F
:103FE800004002401E1C279AF41300200000000025
:103FF8006D3F0A0870470020704710B50446FCF76B
:104008004AF8204610BD08B508B1FFF7F6FF08BD0D
:1040180038B5C468D4B12378022B02D1E068FFF721
:1040280007FD65682DB12846FFF71BFF2846FCF7FA
:1040380032F8A5682DB12846FFF713FF2846FCF78C
:104048002AF82046BDE83840FCF725B838BD13B536
:10405800044691E8050000234B600B602060626015
:1040680001A801930093FFF7BEFE204602B010BDE1
:10407800F7B50C4606460F4654F8043B02AD45F822
:10408800083D214601A8FFF7C4FE29463046FFF740
:10409800DEFF01A8FFF7A7FE2046FFF7A4FE38467B
:1040A800FBF7F9FF304603B0F0BD826810B50AB9D6
:1040B80000F095FCC368BDE81040184708B50068D3
:1040C80000F11001FFF7F1FF08BD826810B50AB9C9
:1040D80000F085FCC368BDE81040184708B50068C3
:1040E80000F11001FFF7F1FF08BD38B50023836028
:1040F8008B6804460D462BB102229847EB68E360B3
:10410800AB68A360204638BD2DE9F0414FF69C739B
:1041180004684FF0020086B0B1F904208B800023B8
:104128000F688DF800300B60D4E84F1F994203D117
:10413800C4E8450F002DF7D102D08DF800106BE0D0
:1041480014F10C051CBFE7602282BFF35F8F18BF14
:104158001F4601236370BFF35F8F04F1080300203B
:1041680053E8006F43E80002002AF9D1BFF35F8FDC
:10417800002E51D0FFF710FC20B129463046FFF73A
:1041880094FF43E031466846FFF7AFFFE068B4F9B3
:10419800105008B101F094FD04901020ADF81450AF
:1041A800FBF777FF054630B34FF00008C0F80880EA
:1041B8001820FBF76EFF0446C0B1C0F8088001461E
:1041C8006846FFF75DFE029BA268A360039B02920C
:1041D800E268E360BDF814300392A3824FF69C7343
:1041E800ADF81430049BCDF8108023610D4B2C6082
:1041F800EB600D4BAB600498FFF71AFC6846FFF7BD
:1042080030FE002229460948FFF7CEFB3046FFF76B
:1042180028FE3046FBF73FFF3846FFF709FC06B09B
:10422800BDE8F081C5400A0821430A08B9470A08D1
:104238002DE9F04F8BB007AD4FF0000B06469946BD
:1042480014200C230F4690469DF850A0C5F804B0E2
:10425800C5F808B00793FBF71CFF044638B180F88F
:1042680000B080F801B0C0F804B0C0F808B000236E
:10427800102003940493FBF70CFF28B1012343603B
:104288008360234BC4600360224B0490082008938A
:10429800FBF7FFFE044628B1039B04A940F8043B42
:1042A800FFF7B7FD00955FFA8AF34A46414638465C
:1042B8000994FFF79DFBB8B9039B5B7803F0FF02F5
:1042C80093B94FF69C7305A903A80592ADF8183069
:1042D800FFF71AFF0598FFF7ABFB05A80999FFF749
:1042E800C7FE06A8FFF77FFD039B04A906A8059350
:1042F800FFF78FFD05A93046FFF7A9FE06A8FFF7CF
:1043080072FD04A8FFF76FFD30460BB0BDE8F08FD3
:10431800DC6B0A0889440A08022AF8B5044606D064
:10432800032A17D0012A20D10B6803601DE018204A
:104338000E68FBF7AEFE054650B13146FFF7D5FED5
:104348003069B6F9147008B101F0BAFC2861AF827F
:1043580025600AE0046844B12069FFF769FB20463C
:10436800FFF77FFD2046FBF796FE0020F8BD38B525
:10437800002383608B6804460D462BB102229847C0
:10438800EB68E360AB68A360204638BD022A70B5CD
:10439800044606D0032A11D0012A17D10B680360FE
:1043A80014E014200E68FBF774FE054620B1314670
:1043B800FFF7DDFF337C2B74256007E004682CB120
:1043C8002046FFF74EFD2046FBF765FE002070BD36
:1043D800F0B50C46BFF35F8F87B0002350E8006F3D
:1043E80040E80032002AF9D1BFF35F8F002E3ED09B
:1043F8001846FFF7D1FA074620B121463046FFF7A5
:1044080064FE2EE0314601A8FFF7B1FF23781020A3
:104418008DF81430FBF73DFE0546D0B187601420B7
:10442800FBF737FE044678B18760014601A8FFF71D
:1044380027FD039BA268A360049B0392E268E360E4
:104448009DF81430049223740A4B2C60EB600A4BDD
:10445800AB6001A8FFF705FD002229460748FFF7D2
:10446800A3FA3046FFF7FDFC3046FBF714FE07B011
:10447800F0BD00BFE5400A0895430A08B9470A0895
:1044880030B5044685B00D4668461146FFF7F0FD85
:104498007CB124B228460DB101F012FC029002A9A9
:1044A8006846ADF80C40FFF72FFE0298FFF7C0FAF8
:1044B8001DE04FF0010200988DF80840D0E84F3F0A
:1044C800A34203D1C0E8412F0029F7D102D08DF8CB
:1044D80008300CE010F10C014FF0010318BF037312
:1044E800BFF35F8F043000F8033CFFF771FF01A8AA
:1044F800FFF779FC05B030BD704710B50446FBF7EF
:10450800CAFD204610BDF8B50F4600F10806051D86
:10451800002416F8011D0A223846FFF71EFCAE4299
:10452800044407D0002CF4D02E213846FFF7D2FBE4
:104538000444EEE72046F8BD10B59DF8084044EA6B
:10454800032343EA024242EA0161042341600375FE
:1045580010BD000037B5044D05609DF81850009552
:10456800FFF7EAFF03B030BDF86B0A0841747047E3
:1045780070470021007CFFF7DFB90121007CFFF7BD
:10458800DBB9007CFFF7D0B9007CFFF7C5B938B5B7
:104598000446007C0D46FFF7C7F9002801DC607C63
:1045A80020B12946207CFFF7CFF9012038BD007CD7
:1045B800FFF7D2B910B50446FBF76DFD204610BDD4
:1045C80010B50446002363604FF47A73A360054B6B
:1045D800084623600123217463741146FFF78CF9A0
:1045E800204610BD0C6C0A080022007CFFF78CB92D
:1045F80010B504461422002101F0D5FA204610BD5A
:1046080030B50E4D87B001A8FFF7F2FF296811F009
:10461800010410D12846FBF74BFD60B101AA2146E1
:104628000748FFF7CDFF2846FBF747FD054A06492F
:10463800034800F0CFF9024807B030BDF813002056
:1046480000140020F004002079450A0810B504463B
:104658001422002101F0A7FA204610BD10B50E4C17
:1046680086B001A8FFF7F2FF2368DB0710D42046C5
:10467800FBF71EFD60B101AA01210848FFF7A0FF62
:104688002046FBF71AFD064A0649044800F0A2F93D
:10469800024806B010BD00BFFC130020141400200F
:1046A800F004002079450A08704741747047007C7F
:1046B800FFF7E0B8007CFFF7B5B8007CFFF7C2B899
:1046C800007CFFF7B7B8007CFFF7C4B810B5044604
:1046D800FBF7E1FC204610BD70B5457C04460E464C
:1046E80025B9007CFFF7C6F8002805DD3146207C97
:1046F800BDE87040FFF78EB8284670BD10B5044677
:1047080008461146002262604FF47A72A260054A98
:1047180020742260012262741A46FFF773F820465B
:1047280010BD00BF3C6C0A08007CFFF79BB8000076
:10473800F8B5194C25684DB98420FBF7AAFC064644
:1047480018B18422294601F02EFA2660134D2E68EE
:104758004EB98420FBF79DFC074618B184223146E8
:1047680001F021FA2F600E4F396811F0010611D1BE
:104778003846FBF79DFC68B1226831462B6809482A
:10478800FFF7BCFF3846FBF798FC074A074905487E
:1047980000F020F90348F8BD441400203C14002020
:1047A8004014002028140020F0040020B1460A0814
:1047B80010B5836804460BB900F011F9C36898472F
:1047C800A3681BB103222146204698472046BDE82E
:1047D8001040FBF760BC7047F8B5064615460C4616
:1047E8008F18BC4206D0336814F8011B9B6830460A
:1047F8009847F6E72846F8BD0022007CFFF742B844
:104808000021007CFFF746B80021007CFFF74AB87A
:104818000021007CFFF74EB80021007CFFF752B85A
:1048280010B50446FBF737FC204610BD10B504460A
:1048380008464FF47A73A360044B0021207461602A
:104848002360FFF74FF8204610BD00BF6C6C0A08C4
:104858000021007CFFF73EB8704700221146104641
:10486800FFF7BEB80348044B044A0549036000F04B
:10487800B1B800BF48140020946C0A08F004002066
:1048880061480A0810B504460F48FFF71DF928B11A
:10489800A4F10D03022B01D8002010BD00F07AF816
:1048A800FFF7D6FF08B1012CF6D9FFF741FFFFF754
:1048B8003BFF18B1A4F11203012BEDD9172C8CBFC3
:1048C8000020012010BD00BF4C140020172838B567
:1048D80004460D460AD8FF2908D0FFF7D3FF28B1B0
:1048E80029462046BDE83840FEF734BF38BD38B504
:1048F80004460D46FEF736FFFF2810D0062804D8D8
:104908004D2323FA00F0C30709D42046FFF7BAFF66
:1049180028B129462046BDE83840FEF72BBF38BDF0
:1049280070B50C4C0C4E0D4D00212046FFF7B8F821
:1049380020460B4C3246294600F04CF8012120460F
:10494800FFF7AEF8324629462046BDE8704000F031
:1049580041B800BF4C140020F0040020993A0A081E
:104968005C14002013B5084C00231A46194600931E
:104978002046FFF7EFFD2046044A054902B0BDE88E
:10498800104000F027B800BF70140020F004002089
:1049980001450A0838B50B4D296811F001040FD1FB
:1049A8002846FBF785FB58B121460748FFF73EFF2D
:1049B8002846FBF782FB054A0549034800F00AF838
:1049C800014838BD881400208C140020F004002011
:1049D800DF470A080B460146184601F0CBB808B570
:1049E800FFF746F8184B1A68D1075CBF01221A6016
:1049F800164B1A68D2075CBF01221A60144B1A685A
:104A0800D0075CBF01221A60124B1A68D1075CBF3D
:104A180001221A60104B1A68D2075CBF01221A6083
:104A28000E4B1A68D0075CBF01221A600C4B1A683B
:104A3800D1075CBF01221A600A4B1A68D2075CBF13
:104A480001221A60704700BFBC140020B81400206F
:104A5800B4140020B0140020AC140020A8140020C6
:104A6800A4140020A0140020244B1A68D0075CBFAF
:104A780001221A60224B1A68D1075CBF01221A6012
:104A8800204B1A68D2075CBF01221A601E4B1A68B5
:104A9800D0075CBF01221A601C4B1A68D1075CBFA3
:104AA80001221A601A4B1A68D2075CBF01221A60E9
:104AB800184B1A68D0075CBF01221A60164B1A6897
:104AC800D1075CBF01221A60144B1A68D2075CBF79
:104AD80001221A60124B1A68D0075CBF01221A60C3
:104AE800104B1A68D1075CBF01221A600E4B1A6876
:104AF800D2075CBF01221A60704700BFEC14002087
:104B0800E8140020E4140020E0140020DC14002045
:104B1800D8140020D4140020D0140020CC14002075
:104B2800C8140020C4140020C0140020244B1A68A4
:104B3800D0075CBF01221A60224B1A68D1075CBFFC
:104B480001221A60204B1A68D2075CBF01221A6042
:104B58001E4B1A68D0075CBF01221A601C4B1A68EA
:104B6800D1075CBF01221A601A4B1A68D2075CBFD2
:104B780001221A60184B1A68D0075CBF01221A601C
:104B8800164B1A68D1075CBF01221A60144B1A68C9
:104B9800D2075CBF01221A60124B1A68D0075CBFAB
:104BA80001221A60104B1A68D1075CBF01221A60F3
:104BB8000E4B1A68D2075CBF01221A60704700BF0B
:104BC8001C150020181500201415002010150020B1
:104BD8000C150020081500200415002000150020E1
:104BE800FC140020F8140020F4140020F014002015
:104BF800184B1A68D1075CBF01221A60164B1A6855
:104C0800D2075CBF01221A60144B1A68D0075CBF38
:104C180001221A60124B1A68D1075CBF01221A6080
:104C2800104B1A68D2075CBF01221A600E4B1A6833
:104C3800D0075CBF01221A600C4B1A68D1075CBF11
:104C480001221A600A4B1A68D2075CBF01221A6057
:104C5800704700BF3C15002038150020341500208F
:104C6800301500202C1500202815002024150020C0
:104C78002015002081F0004102E000BF83F00043CE
:104C880030B54FEA41044FEA430594EA050F08BFDF
:104C980090EA020F1FBF54EA000C55EA020C7FEAA3
:104CA800645C7FEA655C00F0E2804FEA5454D4EB20
:104CB8005555B8BF6D420CDD2C4480EA020281EAEA
:104CC800030382EA000083EA010180EA020281EA22
:104CD8000303362D88BF30BD11F0004F4FEA013174
:104CE8004FF4801C4CEA113102D0404261EB410183
:104CF80013F0004F4FEA03334CEA133302D0524209
:104D080063EB430394EA050F00F0A780A4F10104C4
:104D1800D5F1200E0DDB02FA0EFC22FA05F28018FE
:104D280041F1000103FA0EF2801843FA05F35941E4
:104D38000EE0A5F120050EF1200E012A03FA0EFC63
:104D480028BF4CF0020C43FA05F3C01851EBE3718D
:104D580001F0004507D54FF0000EDCF1000C7EEBAA
:104D680000006EEB0101B1F5801F1BD3B1F5001FE8
:104D78000CD349085FEA30004FEA3C0C04F1010407
:104D88004FEA445212F5800F80F09A80BCF1004F30
:104D980008BF5FEA500C50F1000041EB045141EAB2
:104DA800050130BD5FEA4C0C404141EB010111F4B3
:104DB800801FA4F10104E9D191F0000F04BF01465E
:104DC8000020B1FA81F308BF2033A3F10B03B3F13C
:104DD80020020CDA0C3208DD02F1140CC2F10C02CC
:104DE80001FA0CF021FA02F10CE002F11402D8BF2A
:104DF800C2F1200C01FA02F120FA0CFCDCBF41EAF6
:104E08000C019040E41AA2BF01EB0451294330BDC4
:104E18006FEA04041F3C1CDA0C340EDC04F11404A1
:104E2800C4F1200220FA04F001FA02F340EA030078
:104E380021FA04F345EA030130BDC4F10C04C4F1BE
:104E4800200220FA02F001FA04F340EA030029469E
:104E580030BD21FA04F0294630BD94F0000F83F4E8
:104E6800801306BF81F480110134013D4EE77FEACB
:104E7800645C18BF7FEA655C29D094EA050F08BF17
:104E880090EA020F05D054EA000C04BF19461046F8
:104E980030BD91EA030F1EBF0021002030BD5FEA3C
:104EA800545C05D14000494128BF41F0004130BD64
:104EB80014F580043CBF01F5801130BD01F00045B8
:104EC80045F0FE4141F470014FF0000030BD7FEA2B
:104ED800645C1ABF194610467FEA655C1CBF0B4626
:104EE800024650EA013406BF52EA033591EA030F3D
:104EF80041F4002130BD00BF90F0000F04BF002135
:104F0800704730B54FF4806404F132044FF0000567
:104F18004FF0000150E700BF90F0000F04BF0021E0
:104F2800704730B54FF4806404F1320410F0004546
:104F380048BF40424FF000013EE700BF42004FEA41
:104F4800E2014FEA31014FEA02701FBF12F07F43BE
:104F580093F07F4F81F06051704792F0000F14BFBB
:104F680093F07F4F704730B54FF4607401F00045FF
:104F780021F0004120E700BF50EA010208BF704756
:104F880030B54FF000050AE050EA010208BF70474B
:104F980030B511F0004502D5404261EB41014FF4B4
:104FA800806404F132045FEA915C3FF4DCAE4FF0B8
:104FB80003025FEADC0C18BF03325FEADC0C18BF9F
:104FC800033202EBDC02C2F1200300FA03FC20FAF0
:104FD80002F001FA03FE40EA0E0021FA02F114443D
:104FE800C1E600BF70B54FF0FF0C4CF4E06C1CEA52
:104FF80011541DBF1CEA135594EA0C0F95EA0C0FC7
:1050080000F0DEF82C4481EA030621EA4C5123EA39
:105018004C5350EA013518BF52EA033541F4801168
:1050280043F4801338D0A0FB02CE4FF00005E1FB1B
:1050380002E506F00042E0FB03E54FF00006E1FB65
:1050480003569CF0000F18BF4EF0010EA4F1FF04A8
:10505800B6F5007F64F5407404D25FEA4E0E6D41E8
:1050680046EB060642EAC62141EA55514FEAC520F9
:1050780040EA5E504FEACE2EB4F1FD0C88BFBCF575
:10508800E06F1ED8BEF1004F08BF5FEA500E50F126
:10509800000041EB045170BD06F0004646EA0101EC
:1050A80040EA020081EA0301B4EB5C04C2BFD4EB1E
:1050B8000C0541EA045170BD41F480114FF0000E17
:1050C800013C00F3AB8014F1360FDEBF002001F085
:1050D800004170BDC4F10004203C35DA0C341BDCFF
:1050E80004F11404C4F1200500FA05F320FA04F0D1
:1050F80001FA05F240EA020001F0004221F0004105
:1051080010EBD37021FA04F642EB06015EEA430E77
:1051180008BF20EAD37070BDC4F10C04C4F12005A7
:1051280000FA04F320FA05F001FA04F240EA02005A
:1051380001F0004110EBD37041F100015EEA430E2B
:1051480008BF20EAD37070BDC4F1200500FA05F24B
:105158004EEA020E20FA04F301FA05F243EA0203CA
:1051680021FA04F001F0004121FA04F220EA0200D9
:1051780000EBD3705EEA430E08BF20EAD37070BD1F
:1051880094F0000F0FD101F00046400041EB0101FF
:1051980011F4801F08BF013CF7D041EA060195F0E1
:1051A800000F18BF704703F00046520043EB03039B
:1051B80013F4801F08BF013DF7D043EA0603704788
:1051C80094EA0C0F0CEA135518BF95EA0C0F0CD093
:1051D80050EA410618BF52EA4306D1D181EA0301D9
:1051E80001F000414FF0000070BD50EA410606BFD3
:1051F8001046194652EA430619D094EA0C0F02D118
:1052080050EA013613D195EA0C0F05D152EA03365C
:105218001CBF104619460AD181EA030101F000417A
:1052280041F0FE4141F470014FF0000070BD41F0C3
:10523800FE4141F4780170BD70B54FF0FF0C4CF49D
:10524800E06C1CEA11541DBF1CEA135594EA0C0FBC
:1052580095EA0C0F00F0A7F8A4EB050481EA030E09
:1052680052EA03354FEA013100F088804FEA0333F0
:105278004FF0805545EA131343EA12634FEA0222BE
:1052880045EA111545EA10654FEA00260EF000417F
:105298009D4208BF964244F1FD0404F5407402D2D1
:1052A8005B084FEA3202B61A65EB03055B084FEA62
:1052B80032024FF480104FF4002CB6EB020E75EB5F
:1052C800030E22BFB61A754640EA0C005B084FEA87
:1052D8003202B6EB020E75EB030E22BFB61A754604
:1052E80040EA5C005B084FEA3202B6EB020E75EB4F
:1052F800030E22BFB61A754640EA9C005B084FEAC7
:105308003202B6EB020E75EB030E22BFB61A7546D3
:1053180040EADC0055EA060E18D04FEA051545EAC2
:1053280016754FEA06164FEAC30343EA52734FEA6B
:10533800C2025FEA1C1CC0D111F4801F0BD141EAE4
:1053480000014FF000004FF0004CB6E711F4801F49
:1053580004BF01430020B4F1FD0C88BFBCF5E06F29
:105368003FF6AFAEB5EB030C04BFB6EB020C5FEA39
:10537800500C50F1000041EB045170BD0EF0004E8E
:105388004EEA113114EB5C04C2BFD4EB0C0541EAC0
:10539800045170BD41F480114FF0000E013C90E6BD
:1053A80045EA060E8DE60CEA135594EA0C0F08BF81
:1053B80095EA0C0F3FF43BAF94EA0C0F0AD150EA80
:1053C80001347FF434AF95EA0C0F7FF425AF104613
:1053D80019462CE795EA0C0F06D152EA03353FF43B
:1053E800FDAE1046194622E750EA410618BF52EAB8
:1053F80043067FF4C5AE50EA41047FF40DAF52EA8C
:1054080043057FF4EBAE12E74FEA410212F50012B2
:1054180015D211D56FF47873B3EB625212D94FEAF3
:10542800C12343F0004343EA505311F0004F23FADD
:1054380002F018BF404270474FF00000704750EA32
:10544800013005D111F0004008BF6FF000407047EF
:105458004FF00000704700BF4A0011D212F5001249
:1054680011D20DD56FF47873B3EB62520ED44FEAB4
:10547800C12343F0004343EA505323FA02F0704734
:105488004FF00000704750EA013002D14FF0FF3072
:1054980070474FF0000070474FEA4102B2F1E04315
:1054A80024BFB3F5001CDCF1FE5C0DD901F0004C03
:1054B8004FEAC0024CEA5070B2F1004F40EB830053
:1054C80008BF20F00100704711F0804F21D113F17F
:1054D8003872BCBF01F00040704741F480114FEAB8
:1054E8005252C2F11802C2F1200C10FA0CF320FA41
:1054F80002F018BF40F001004FEAC1234FEAD3235E
:1055080003FA0CFC40EA0C0023FA02F34FEA4303C7
:10551800CCE77FEA625307D150EA01331EBF4FF050
:10552800FE4040F44000704701F0004040F0FE406B
:1055380040F40000704700BF80F0004002E000BF68
:1055480081F0004142001FBF5FEA410392EA030F66
:105558007FEA226C7FEA236C6AD04FEA1262D2EBB0
:105568001363C1BFD218414048404140B8BF5B42B5
:10557800192B88BF704710F0004F40F4000020F04E
:105588007F4018BF404211F0004F41F4000121F064
:105598007F4118BF494292EA030F3FD0A2F10102AE
:1055A80041FA03FC10EB0C00C3F1200301FA03F1EC
:1055B80000F0004302D5494260EB4000B0F5000F0F
:1055C80013D3B0F1807F06D340084FEA310102F1CE
:1055D8000102FE2A51D2B1F1004F40EBC25008BF80
:1055E80020F0010040EA03007047490040EB00004A
:1055F80010F4000FA2F10102EDD1B0FA80FCACF179
:10560800080CB2EB0C0200FA0CF0AABF00EBC25077
:1056180052421843BCBFD0401843704792F0000F65
:1056280081F4000106BF80F400000132013BB5E7B8
:105638004FEA41037FEA226C18BF7FEA236C21D02E
:1056480092EA030F04D092F0000F08BF0846704793
:1056580090EA010F1CBF0020704712F07F4F04D161
:10566800400028BF40F00040704712F100723CBF74
:1056780000F50000704700F0004343F0FE4040F49E
:10568800000070477FEA226216BF08467FEA23635C
:105698000146420206BF5FEA412390EA010F40F447
:1056A800800070474FF0000304E000BF10F0004393
:1056B80048BF40425FEA000C08BF704743F096437A
:1056C80001464FF000001CE050EA010208BF704795
:1056D8004FF000030AE000BF50EA010208BF70471C
:1056E80011F0004302D5404261EB41015FEA010C31
:1056F80002BF84460146002043F0B64308BFA3F129
:105708008053A3F50003BCFA8CF2083AA3EBC2530A
:1057180010DB01FA02FC634400FA02FCC2F1200229
:10572800BCF1004F20FA02F243EB020008BF20F060
:105738000100704702F1200201FA02FCC2F12002C6
:1057480050EA4C0021FA02F243EB020008BF20EABB
:10575800DC7070474FF0FF0C1CEAD0521EBF1CEAE9
:10576800D15392EA0C0F93EA0C0F6FD01A4480EAD7
:10577800010C400218BF5FEA41211ED04FF00063C0
:1057880043EA501043EA5111A0FB01310CF00040EC
:10579800B1F5000F3EBF490041EAD3715B0040EA12
:1057A800010062F17F02FD2A1DD8B3F1004F40EBE2
:1057B800C25008BF20F00100704790F0000F0CF0B5
:1057C800004C08BF49024CEA502040EA51207F3A79
:1057D800C2BFD2F1FF0340EAC250704740F4000054
:1057E8004FF00003013A5DDC12F1190FDCBF00F045
:1057F80000407047C2F10002410021FA02F1C2F1F3
:10580800200200FA02FC5FEA310040F1000053EA8E
:105818004C0308BF20EADC70704792F0000F00F0DC
:10582800004C02BF400010F4000F013AF9D040EAE2
:105838000C0093F0000F01F0004C02BF490011F476
:10584800000F013BF9D041EA0C018FE70CEAD15374
:1058580092EA0C0F18BF93EA0C0F0AD030F0004CF4
:1058680018BF31F0004CD8D180EA010000F00040A8
:10587800704790F0000F17BF90F0004F084691F066
:10588800000F91F0004F14D092EA0C0F01D14202A0
:105898000FD193EA0C0F03D14B0218BF084608D169
:1058A80080EA010000F0004040F0FE4040F40000B3
:1058B800704740F0FE4040F4400070474FF0FF0C46
:1058C8001CEAD0521EBF1CEAD15392EA0C0F93EA8D
:1058D8000C0F69D0A2EB030280EA010C49024FEADF
:1058E800402037D04FF0805343EA111143EA101398
:1058F8000CF000408B4238BF5B0042F17D024FF450
:10590800000C8B4224BF5B1A40EA0C00B3EB510F2A
:1059180024BFA3EB510340EA5C00B3EB910F24BF13
:10592800A3EB910340EA9C00B3EBD10F24BFA3EB98
:10593800D10340EADC001B0118BF5FEA1C1CE0D160
:10594800FD2A3FF650AF8B4240EBC25008BF20F013
:10595800010070470CF0004C4CEA50207F32C2BF67
:10596800D2F1FF0340EAC250704740F400004FF004
:105978000003013A37E792F0000F00F0004C02BF35
:10598800400010F4000F013AF9D040EA0C0093F0FF
:10599800000F01F0004C02BF490011F4000F013B59
:1059A800F9D041EA0C0195E70CEAD15392EA0C0FC1
:1059B80008D142027FF47DAF93EA0C0F7FF470AFF9
:1059C800084676E793EA0C0F04D14B023FF44CAF3C
:1059D80008466EE730F0004C18BF31F0004CCAD1D1
:1059E80030F000427FF45CAF31F000437FF43CAF0D
:1059F8005FE700BF4FF0FF3C06E000BF4FF0010C2F
:105A080002E000BF4FF0010C4DF804CD4FEA400210
:105A18004FEA41037FEA226C18BF7FEA236C11D05A
:105A280001B052EA530C18BF90EA010F58BFB2EB0D
:105A3800030088BFC81738BF6FEAE17018BF40F08D
:105A4800010070477FEA226C02D15FEA402C05D141
:105A58007FEA236CE4D15FEA412CE1D05DF8040BC6
:105A6800704700BF844608466146FFE70FB5FFF759
:105A7800C9FF002848BF10F1000F0FBD4DF808ED11
:105A8800FFF7F4FF0CBF012000205DF808FB00BF02
:105A98004DF808EDFFF7EAFF34BF012000205DF85C
:105AA80008FB00BF4DF808EDFFF7E0FF94BF0120A9
:105AB80000205DF808FB00BF4DF808EDFFF7D2FFA6
:105AC80094BF012000205DF808FB00BF4DF808EDE9
